{
  "contractName": "DriftManiaClub",
  "abi": [
    {
      "inputs": [],
      "stateMutability": "nonpayable",
      "type": "constructor"
    },
    {
      "anonymous": false,
      "inputs": [
        {
          "indexed": false,
          "internalType": "address",
          "name": "previousAdmin",
          "type": "address"
        },
        {
          "indexed": false,
          "internalType": "address",
          "name": "newAdmin",
          "type": "address"
        }
      ],
      "name": "AdminChanged",
      "type": "event"
    },
    {
      "anonymous": false,
      "inputs": [
        {
          "indexed": true,
          "internalType": "address",
          "name": "owner",
          "type": "address"
        },
        {
          "indexed": true,
          "internalType": "address",
          "name": "spender",
          "type": "address"
        },
        {
          "indexed": false,
          "internalType": "uint256",
          "name": "value",
          "type": "uint256"
        }
      ],
      "name": "Approval",
      "type": "event"
    },
    {
      "anonymous": false,
      "inputs": [
        {
          "indexed": true,
          "internalType": "address",
          "name": "beacon",
          "type": "address"
        }
      ],
      "name": "BeaconUpgraded",
      "type": "event"
    },
    {
      "anonymous": false,
      "inputs": [
        {
          "indexed": false,
          "internalType": "uint8",
          "name": "version",
          "type": "uint8"
        }
      ],
      "name": "Initialized",
      "type": "event"
    },
    {
      "anonymous": false,
      "inputs": [
        {
          "indexed": true,
          "internalType": "address",
          "name": "previousOwner",
          "type": "address"
        },
        {
          "indexed": true,
          "internalType": "address",
          "name": "newOwner",
          "type": "address"
        }
      ],
      "name": "OwnershipTransferred",
      "type": "event"
    },
    {
      "anonymous": false,
      "inputs": [
        {
          "indexed": false,
          "internalType": "address",
          "name": "account",
          "type": "address"
        }
      ],
      "name": "Paused",
      "type": "event"
    },
    {
      "anonymous": false,
      "inputs": [
        {
          "indexed": true,
          "internalType": "address",
          "name": "from",
          "type": "address"
        },
        {
          "indexed": true,
          "internalType": "address",
          "name": "to",
          "type": "address"
        },
        {
          "indexed": false,
          "internalType": "uint256",
          "name": "value",
          "type": "uint256"
        }
      ],
      "name": "Transfer",
      "type": "event"
    },
    {
      "anonymous": false,
      "inputs": [
        {
          "indexed": false,
          "internalType": "address",
          "name": "account",
          "type": "address"
        }
      ],
      "name": "Unpaused",
      "type": "event"
    },
    {
      "anonymous": false,
      "inputs": [
        {
          "indexed": true,
          "internalType": "address",
          "name": "implementation",
          "type": "address"
        }
      ],
      "name": "Upgraded",
      "type": "event"
    },
    {
      "inputs": [
        {
          "internalType": "address",
          "name": "owner",
          "type": "address"
        },
        {
          "internalType": "address",
          "name": "spender",
          "type": "address"
        }
      ],
      "name": "allowance",
      "outputs": [
        {
          "internalType": "uint256",
          "name": "",
          "type": "uint256"
        }
      ],
      "stateMutability": "view",
      "type": "function",
      "constant": true
    },
    {
      "inputs": [
        {
          "internalType": "address",
          "name": "spender",
          "type": "address"
        },
        {
          "internalType": "uint256",
          "name": "amount",
          "type": "uint256"
        }
      ],
      "name": "approve",
      "outputs": [
        {
          "internalType": "bool",
          "name": "",
          "type": "bool"
        }
      ],
      "stateMutability": "nonpayable",
      "type": "function"
    },
    {
      "inputs": [
        {
          "internalType": "address",
          "name": "account",
          "type": "address"
        }
      ],
      "name": "balanceOf",
      "outputs": [
        {
          "internalType": "uint256",
          "name": "",
          "type": "uint256"
        }
      ],
      "stateMutability": "view",
      "type": "function",
      "constant": true
    },
    {
      "inputs": [
        {
          "internalType": "uint256",
          "name": "amount",
          "type": "uint256"
        }
      ],
      "name": "burn",
      "outputs": [],
      "stateMutability": "nonpayable",
      "type": "function"
    },
    {
      "inputs": [
        {
          "internalType": "address",
          "name": "account",
          "type": "address"
        },
        {
          "internalType": "uint256",
          "name": "amount",
          "type": "uint256"
        }
      ],
      "name": "burnFrom",
      "outputs": [],
      "stateMutability": "nonpayable",
      "type": "function"
    },
    {
      "inputs": [],
      "name": "decimals",
      "outputs": [
        {
          "internalType": "uint8",
          "name": "",
          "type": "uint8"
        }
      ],
      "stateMutability": "view",
      "type": "function",
      "constant": true
    },
    {
      "inputs": [
        {
          "internalType": "address",
          "name": "spender",
          "type": "address"
        },
        {
          "internalType": "uint256",
          "name": "subtractedValue",
          "type": "uint256"
        }
      ],
      "name": "decreaseAllowance",
      "outputs": [
        {
          "internalType": "bool",
          "name": "",
          "type": "bool"
        }
      ],
      "stateMutability": "nonpayable",
      "type": "function"
    },
    {
      "inputs": [
        {
          "internalType": "address",
          "name": "spender",
          "type": "address"
        },
        {
          "internalType": "uint256",
          "name": "addedValue",
          "type": "uint256"
        }
      ],
      "name": "increaseAllowance",
      "outputs": [
        {
          "internalType": "bool",
          "name": "",
          "type": "bool"
        }
      ],
      "stateMutability": "nonpayable",
      "type": "function"
    },
    {
      "inputs": [],
      "name": "name",
      "outputs": [
        {
          "internalType": "string",
          "name": "",
          "type": "string"
        }
      ],
      "stateMutability": "view",
      "type": "function",
      "constant": true
    },
    {
      "inputs": [],
      "name": "owner",
      "outputs": [
        {
          "internalType": "address",
          "name": "",
          "type": "address"
        }
      ],
      "stateMutability": "view",
      "type": "function",
      "constant": true
    },
    {
      "inputs": [],
      "name": "paused",
      "outputs": [
        {
          "internalType": "bool",
          "name": "",
          "type": "bool"
        }
      ],
      "stateMutability": "view",
      "type": "function",
      "constant": true
    },
    {
      "inputs": [],
      "name": "proxiableUUID",
      "outputs": [
        {
          "internalType": "bytes32",
          "name": "",
          "type": "bytes32"
        }
      ],
      "stateMutability": "view",
      "type": "function",
      "constant": true
    },
    {
      "inputs": [],
      "name": "renounceOwnership",
      "outputs": [],
      "stateMutability": "nonpayable",
      "type": "function"
    },
    {
      "inputs": [],
      "name": "symbol",
      "outputs": [
        {
          "internalType": "string",
          "name": "",
          "type": "string"
        }
      ],
      "stateMutability": "view",
      "type": "function",
      "constant": true
    },
    {
      "inputs": [],
      "name": "totalSupply",
      "outputs": [
        {
          "internalType": "uint256",
          "name": "",
          "type": "uint256"
        }
      ],
      "stateMutability": "view",
      "type": "function",
      "constant": true
    },
    {
      "inputs": [
        {
          "internalType": "address",
          "name": "to",
          "type": "address"
        },
        {
          "internalType": "uint256",
          "name": "amount",
          "type": "uint256"
        }
      ],
      "name": "transfer",
      "outputs": [
        {
          "internalType": "bool",
          "name": "",
          "type": "bool"
        }
      ],
      "stateMutability": "nonpayable",
      "type": "function"
    },
    {
      "inputs": [
        {
          "internalType": "address",
          "name": "from",
          "type": "address"
        },
        {
          "internalType": "address",
          "name": "to",
          "type": "address"
        },
        {
          "internalType": "uint256",
          "name": "amount",
          "type": "uint256"
        }
      ],
      "name": "transferFrom",
      "outputs": [
        {
          "internalType": "bool",
          "name": "",
          "type": "bool"
        }
      ],
      "stateMutability": "nonpayable",
      "type": "function"
    },
    {
      "inputs": [
        {
          "internalType": "address",
          "name": "newOwner",
          "type": "address"
        }
      ],
      "name": "transferOwnership",
      "outputs": [],
      "stateMutability": "nonpayable",
      "type": "function"
    },
    {
      "inputs": [
        {
          "internalType": "address",
          "name": "newImplementation",
          "type": "address"
        }
      ],
      "name": "upgradeTo",
      "outputs": [],
      "stateMutability": "nonpayable",
      "type": "function"
    },
    {
      "inputs": [
        {
          "internalType": "address",
          "name": "newImplementation",
          "type": "address"
        },
        {
          "internalType": "bytes",
          "name": "data",
          "type": "bytes"
        }
      ],
      "name": "upgradeToAndCall",
      "outputs": [],
      "stateMutability": "payable",
      "type": "function",
      "payable": true
    },
    {
      "inputs": [],
      "name": "initialize",
      "outputs": [],
      "stateMutability": "nonpayable",
      "type": "function"
    },
    {
      "inputs": [],
      "name": "pause",
      "outputs": [],
      "stateMutability": "nonpayable",
      "type": "function"
    },
    {
      "inputs": [],
      "name": "unpause",
      "outputs": [],
      "stateMutability": "nonpayable",
      "type": "function"
    },
    {
      "inputs": [
        {
          "internalType": "address",
          "name": "to",
          "type": "address"
        },
        {
          "internalType": "uint256",
          "name": "amount",
          "type": "uint256"
        }
      ],
      "name": "mint",
      "outputs": [],
      "stateMutability": "nonpayable",
      "type": "function"
    }
  ],
  "bytecode": "0x60a06040523073ffffffffffffffffffffffffffffffffffffffff1660809073ffffffffffffffffffffffffffffffffffffffff168152503480156200004457600080fd5b50620000556200005b60201b60201c565b62000206565b600060019054906101000a900460ff1615620000ae576040517f08c379a0000000000000000000000000000000000000000000000000000000008152600401620000a590620001a9565b60405180910390fd5b60ff801660008054906101000a900460ff1660ff161015620001205760ff6000806101000a81548160ff021916908360ff1602179055507f7f26b83ff96e1f2b6a682f133852f6798a09c465da95921460cefb384740249860ff604051620001179190620001e9565b60405180910390a15b565b600082825260208201905092915050565b7f496e697469616c697a61626c653a20636f6e747261637420697320696e69746960008201527f616c697a696e6700000000000000000000000000000000000000000000000000602082015250565b60006200019160278362000122565b91506200019e8262000133565b604082019050919050565b60006020820190508181036000830152620001c48162000182565b9050919050565b600060ff82169050919050565b620001e381620001cb565b82525050565b6000602082019050620002006000830184620001d8565b92915050565b6080516138286200023e60003960008181610666015281816106f401528181610861015281816108ef015261099f01526138286000f3fe60806040526004361061014b5760003560e01c80635c975abb116100b65780638da5cb5b1161006f5780638da5cb5b1461043757806395d89b4114610462578063a457c2d71461048d578063a9059cbb146104ca578063dd62ed3e14610507578063f2fde38b146105445761014b565b80635c975abb1461036157806370a082311461038c578063715018a6146103c957806379cc6790146103e05780638129fc1c146104095780638456cb59146104205761014b565b8063395093511161010857806339509351146102745780633f4ba83a146102b157806340c10f19146102c857806342966c68146102f15780634f1ef2861461031a57806352d1902d146103365761014b565b806306fdde0314610150578063095ea7b31461017b57806318160ddd146101b857806323b872dd146101e3578063313ce567146102205780633659cfe61461024b575b600080fd5b34801561015c57600080fd5b5061016561056d565b60405161017291906122e6565b60405180910390f35b34801561018757600080fd5b506101a2600480360381019061019d91906123b0565b6105ff565b6040516101af919061240b565b60405180910390f35b3480156101c457600080fd5b506101cd610622565b6040516101da9190612435565b60405180910390f35b3480156101ef57600080fd5b5061020a60048036038101906102059190612450565b61062c565b604051610217919061240b565b60405180910390f35b34801561022c57600080fd5b5061023561065b565b60405161024291906124bf565b60405180910390f35b34801561025757600080fd5b50610272600480360381019061026d91906124da565b610664565b005b34801561028057600080fd5b5061029b600480360381019061029691906123b0565b6107ec565b6040516102a8919061240b565b60405180910390f35b3480156102bd57600080fd5b506102c6610823565b005b3480156102d457600080fd5b506102ef60048036038101906102ea91906123b0565b610835565b005b3480156102fd57600080fd5b5061031860048036038101906103139190612507565b61084b565b005b610334600480360381019061032f9190612669565b61085f565b005b34801561034257600080fd5b5061034b61099b565b60405161035891906126de565b60405180910390f35b34801561036d57600080fd5b50610376610a54565b604051610383919061240b565b60405180910390f35b34801561039857600080fd5b506103b360048036038101906103ae91906124da565b610a6b565b6040516103c09190612435565b60405180910390f35b3480156103d557600080fd5b506103de610ab4565b005b3480156103ec57600080fd5b50610407600480360381019061040291906123b0565b610ac8565b005b34801561041557600080fd5b5061041e610ae8565b005b34801561042c57600080fd5b50610435610cdd565b005b34801561044357600080fd5b5061044c610cef565b6040516104599190612708565b60405180910390f35b34801561046e57600080fd5b50610477610d19565b60405161048491906122e6565b60405180910390f35b34801561049957600080fd5b506104b460048036038101906104af91906123b0565b610dab565b6040516104c1919061240b565b60405180910390f35b3480156104d657600080fd5b506104f160048036038101906104ec91906123b0565b610e22565b6040516104fe919061240b565b60405180910390f35b34801561051357600080fd5b5061052e60048036038101906105299190612723565b610e45565b60405161053b9190612435565b60405180910390f35b34801561055057600080fd5b5061056b600480360381019061056691906124da565b610ecc565b005b60606036805461057c90612792565b80601f01602080910402602001604051908101604052809291908181526020018280546105a890612792565b80156105f55780601f106105ca576101008083540402835291602001916105f5565b820191906000526020600020905b8154815290600101906020018083116105d857829003601f168201915b5050505050905090565b60008061060a610f4f565b9050610617818585610f57565b600191505092915050565b6000603554905090565b600080610637610f4f565b9050610644858285611120565b61064f8585856111ac565b60019150509392505050565b60006012905090565b7f000000000000000000000000000000000000000000000000000000000000000073ffffffffffffffffffffffffffffffffffffffff163073ffffffffffffffffffffffffffffffffffffffff16036106f2576040517f08c379a00000000000000000000000000000000000000000000000000000000081526004016106e990612835565b60405180910390fd5b7f000000000000000000000000000000000000000000000000000000000000000073ffffffffffffffffffffffffffffffffffffffff1661073161142e565b73ffffffffffffffffffffffffffffffffffffffff1614610787576040517f08c379a000000000000000000000000000000000000000000000000000000000815260040161077e906128c7565b60405180910390fd5b61079081611485565b6107e981600067ffffffffffffffff8111156107af576107ae61253e565b5b6040519080825280601f01601f1916602001820160405280156107e15781602001600182028036833780820191505090505b506000611490565b50565b6000806107f7610f4f565b90506108188185856108098589610e45565b6108139190612916565b610f57565b600191505092915050565b61082b6115fe565b61083361167c565b565b61083d6115fe565b61084782826116df565b5050565b61085c610856610f4f565b8261183f565b50565b7f000000000000000000000000000000000000000000000000000000000000000073ffffffffffffffffffffffffffffffffffffffff163073ffffffffffffffffffffffffffffffffffffffff16036108ed576040517f08c379a00000000000000000000000000000000000000000000000000000000081526004016108e490612835565b60405180910390fd5b7f000000000000000000000000000000000000000000000000000000000000000073ffffffffffffffffffffffffffffffffffffffff1661092c61142e565b73ffffffffffffffffffffffffffffffffffffffff1614610982576040517f08c379a0000000000000000000000000000000000000000000000000000000008152600401610979906128c7565b60405180910390fd5b61098b82611485565b61099782826001611490565b5050565b60007f000000000000000000000000000000000000000000000000000000000000000073ffffffffffffffffffffffffffffffffffffffff163073ffffffffffffffffffffffffffffffffffffffff1614610a2b576040517f08c379a0000000000000000000000000000000000000000000000000000000008152600401610a22906129de565b60405180910390fd5b7f360894a13ba1a3210667c828492db98dca3e2076cc3735a920a3ca505d382bbc60001b905090565b6000609760009054906101000a900460ff16905090565b6000603360008373ffffffffffffffffffffffffffffffffffffffff1673ffffffffffffffffffffffffffffffffffffffff168152602001908152602001600020549050919050565b610abc6115fe565b610ac66000611a17565b565b610ada82610ad4610f4f565b83611120565b610ae4828261183f565b5050565b60008060019054906101000a900460ff16159050808015610b195750600160008054906101000a900460ff1660ff16105b80610b465750610b2830611add565b158015610b455750600160008054906101000a900460ff1660ff16145b5b610b85576040517f08c379a0000000000000000000000000000000000000000000000000000000008152600401610b7c90612a70565b60405180910390fd5b60016000806101000a81548160ff021916908360ff1602179055508015610bc2576001600060016101000a81548160ff0219169083151502179055505b610c366040518060400160405280600e81526020017f44726966744d616e6961436c75620000000000000000000000000000000000008152506040518060400160405280600381526020017f444d430000000000000000000000000000000000000000000000000000000000815250611b00565b610c3e611b5d565b610c46611bae565b610c4e611c07565b610c56611c60565b610c8133610c6261065b565b600a610c6e9190612bc3565b620f4240610c7c9190612c0e565b6116df565b8015610cda5760008060016101000a81548160ff0219169083151502179055507f7f26b83ff96e1f2b6a682f133852f6798a09c465da95921460cefb38474024986001604051610cd19190612cad565b60405180910390a15b50565b610ce56115fe565b610ced611cb1565b565b600060c960009054906101000a900473ffffffffffffffffffffffffffffffffffffffff16905090565b606060378054610d2890612792565b80601f0160208091040260200160405190810160405280929190818152602001828054610d5490612792565b8015610da15780601f10610d7657610100808354040283529160200191610da1565b820191906000526020600020905b815481529060010190602001808311610d8457829003601f168201915b5050505050905090565b600080610db6610f4f565b90506000610dc48286610e45565b905083811015610e09576040517f08c379a0000000000000000000000000000000000000000000000000000000008152600401610e0090612d3a565b60405180910390fd5b610e168286868403610f57565b60019250505092915050565b600080610e2d610f4f565b9050610e3a8185856111ac565b600191505092915050565b6000603460008473ffffffffffffffffffffffffffffffffffffffff1673ffffffffffffffffffffffffffffffffffffffff16815260200190815260200160002060008373ffffffffffffffffffffffffffffffffffffffff1673ffffffffffffffffffffffffffffffffffffffff16815260200190815260200160002054905092915050565b610ed46115fe565b600073ffffffffffffffffffffffffffffffffffffffff168173ffffffffffffffffffffffffffffffffffffffff1603610f43576040517f08c379a0000000000000000000000000000000000000000000000000000000008152600401610f3a90612dcc565b60405180910390fd5b610f4c81611a17565b50565b600033905090565b600073ffffffffffffffffffffffffffffffffffffffff168373ffffffffffffffffffffffffffffffffffffffff1603610fc6576040517f08c379a0000000000000000000000000000000000000000000000000000000008152600401610fbd90612e5e565b60405180910390fd5b600073ffffffffffffffffffffffffffffffffffffffff168273ffffffffffffffffffffffffffffffffffffffff1603611035576040517f08c379a000000000000000000000000000000000000000000000000000000000815260040161102c90612ef0565b60405180910390fd5b80603460008573ffffffffffffffffffffffffffffffffffffffff1673ffffffffffffffffffffffffffffffffffffffff16815260200190815260200160002060008473ffffffffffffffffffffffffffffffffffffffff1673ffffffffffffffffffffffffffffffffffffffff168152602001908152602001600020819055508173ffffffffffffffffffffffffffffffffffffffff168373ffffffffffffffffffffffffffffffffffffffff167f8c5be1e5ebec7d5bd14f71427d1e84f3dd0314c0f7b2291e5b200ac8c7c3b925836040516111139190612435565b60405180910390a3505050565b600061112c8484610e45565b90507fffffffffffffffffffffffffffffffffffffffffffffffffffffffffffffffff81146111a65781811015611198576040517f08c379a000000000000000000000000000000000000000000000000000000000815260040161118f90612f5c565b60405180910390fd5b6111a58484848403610f57565b5b50505050565b600073ffffffffffffffffffffffffffffffffffffffff168373ffffffffffffffffffffffffffffffffffffffff160361121b576040517f08c379a000000000000000000000000000000000000000000000000000000000815260040161121290612fee565b60405180910390fd5b600073ffffffffffffffffffffffffffffffffffffffff168273ffffffffffffffffffffffffffffffffffffffff160361128a576040517f08c379a000000000000000000000000000000000000000000000000000000000815260040161128190613080565b60405180910390fd5b611295838383611d14565b6000603360008573ffffffffffffffffffffffffffffffffffffffff1673ffffffffffffffffffffffffffffffffffffffff1681526020019081526020016000205490508181101561131c576040517f08c379a000000000000000000000000000000000000000000000000000000000815260040161131390613112565b60405180910390fd5b818103603360008673ffffffffffffffffffffffffffffffffffffffff1673ffffffffffffffffffffffffffffffffffffffff1681526020019081526020016000208190555081603360008573ffffffffffffffffffffffffffffffffffffffff1673ffffffffffffffffffffffffffffffffffffffff16815260200190815260200160002060008282546113b19190612916565b925050819055508273ffffffffffffffffffffffffffffffffffffffff168473ffffffffffffffffffffffffffffffffffffffff167fddf252ad1be2c89b69c2b068fc378daa952ba7f163c4a11628f55a4df523b3ef846040516114159190612435565b60405180910390a3611428848484611d2c565b50505050565b600061145c7f360894a13ba1a3210667c828492db98dca3e2076cc3735a920a3ca505d382bbc60001b611d31565b60000160009054906101000a900473ffffffffffffffffffffffffffffffffffffffff16905090565b61148d6115fe565b50565b6114bc7f4910fdfa16fed3260ed0e7147f7cc6da11a60208b5b9406d12a635614ffd914360001b611d3b565b60000160009054906101000a900460ff16156114e0576114db83611d45565b6115f9565b8273ffffffffffffffffffffffffffffffffffffffff166352d1902d6040518163ffffffff1660e01b8152600401602060405180830381865afa92505050801561154857506040513d601f19601f82011682018060405250810190611545919061315e565b60015b611587576040517f08c379a000000000000000000000000000000000000000000000000000000000815260040161157e906131fd565b60405180910390fd5b7f360894a13ba1a3210667c828492db98dca3e2076cc3735a920a3ca505d382bbc60001b81146115ec576040517f08c379a00000000000000000000000000000000000000000000000000000000081526004016115e39061328f565b60405180910390fd5b506115f8838383611dfe565b5b505050565b611606610f4f565b73ffffffffffffffffffffffffffffffffffffffff16611624610cef565b73ffffffffffffffffffffffffffffffffffffffff161461167a576040517f08c379a0000000000000000000000000000000000000000000000000000000008152600401611671906132fb565b60405180910390fd5b565b611684611e2a565b6000609760006101000a81548160ff0219169083151502179055507f5db9ee0a495bf2e6ff9c91a7834c1ba4fdd244a5e8aa4e537bd38aeae4b073aa6116c8610f4f565b6040516116d59190612708565b60405180910390a1565b600073ffffffffffffffffffffffffffffffffffffffff168273ffffffffffffffffffffffffffffffffffffffff160361174e576040517f08c379a000000000000000000000000000000000000000000000000000000000815260040161174590613367565b60405180910390fd5b61175a60008383611d14565b806035600082825461176c9190612916565b9250508190555080603360008473ffffffffffffffffffffffffffffffffffffffff1673ffffffffffffffffffffffffffffffffffffffff16815260200190815260200160002060008282546117c29190612916565b925050819055508173ffffffffffffffffffffffffffffffffffffffff16600073ffffffffffffffffffffffffffffffffffffffff167fddf252ad1be2c89b69c2b068fc378daa952ba7f163c4a11628f55a4df523b3ef836040516118279190612435565b60405180910390a361183b60008383611d2c565b5050565b600073ffffffffffffffffffffffffffffffffffffffff168273ffffffffffffffffffffffffffffffffffffffff16036118ae576040517f08c379a00000000000000000000000000000000000000000000000000000000081526004016118a5906133f9565b60405180910390fd5b6118ba82600083611d14565b6000603360008473ffffffffffffffffffffffffffffffffffffffff1673ffffffffffffffffffffffffffffffffffffffff16815260200190815260200160002054905081811015611941576040517f08c379a00000000000000000000000000000000000000000000000000000000081526004016119389061348b565b60405180910390fd5b818103603360008573ffffffffffffffffffffffffffffffffffffffff1673ffffffffffffffffffffffffffffffffffffffff16815260200190815260200160002081905550816035600082825461199991906134ab565b92505081905550600073ffffffffffffffffffffffffffffffffffffffff168373ffffffffffffffffffffffffffffffffffffffff167fddf252ad1be2c89b69c2b068fc378daa952ba7f163c4a11628f55a4df523b3ef846040516119fe9190612435565b60405180910390a3611a1283600084611d2c565b505050565b600060c960009054906101000a900473ffffffffffffffffffffffffffffffffffffffff1690508160c960006101000a81548173ffffffffffffffffffffffffffffffffffffffff021916908373ffffffffffffffffffffffffffffffffffffffff1602179055508173ffffffffffffffffffffffffffffffffffffffff168173ffffffffffffffffffffffffffffffffffffffff167f8be0079c531659141344cd1fd0a4f28419497f9722a3daafe3b4186f6b6457e060405160405180910390a35050565b6000808273ffffffffffffffffffffffffffffffffffffffff163b119050919050565b600060019054906101000a900460ff16611b4f576040517f08c379a0000000000000000000000000000000000000000000000000000000008152600401611b4690613551565b60405180910390fd5b611b598282611e73565b5050565b600060019054906101000a900460ff16611bac576040517f08c379a0000000000000000000000000000000000000000000000000000000008152600401611ba390613551565b60405180910390fd5b565b600060019054906101000a900460ff16611bfd576040517f08c379a0000000000000000000000000000000000000000000000000000000008152600401611bf490613551565b60405180910390fd5b611c05611ef4565b565b600060019054906101000a900460ff16611c56576040517f08c379a0000000000000000000000000000000000000000000000000000000008152600401611c4d90613551565b60405180910390fd5b611c5e611f60565b565b600060019054906101000a900460ff16611caf576040517f08c379a0000000000000000000000000000000000000000000000000000000008152600401611ca690613551565b60405180910390fd5b565b611cb9611fc1565b6001609760006101000a81548160ff0219169083151502179055507f62e78cea01bee320cd4e420270b5ea74000d11b0c9f74754ebdbfc544b05a258611cfd610f4f565b604051611d0a9190612708565b60405180910390a1565b611d1c611fc1565b611d2783838361200b565b505050565b505050565b6000819050919050565b6000819050919050565b611d4e81611add565b611d8d576040517f08c379a0000000000000000000000000000000000000000000000000000000008152600401611d84906135e3565b60405180910390fd5b80611dba7f360894a13ba1a3210667c828492db98dca3e2076cc3735a920a3ca505d382bbc60001b611d31565b60000160006101000a81548173ffffffffffffffffffffffffffffffffffffffff021916908373ffffffffffffffffffffffffffffffffffffffff16021790555050565b611e0783612010565b600082511180611e145750805b15611e2557611e23838361205f565b505b505050565b611e32610a54565b611e71576040517f08c379a0000000000000000000000000000000000000000000000000000000008152600401611e689061364f565b60405180910390fd5b565b600060019054906101000a900460ff16611ec2576040517f08c379a0000000000000000000000000000000000000000000000000000000008152600401611eb990613551565b60405180910390fd5b8160369080519060200190611ed89291906121aa565b508060379080519060200190611eef9291906121aa565b505050565b600060019054906101000a900460ff16611f43576040517f08c379a0000000000000000000000000000000000000000000000000000000008152600401611f3a90613551565b60405180910390fd5b6000609760006101000a81548160ff021916908315150217905550565b600060019054906101000a900460ff16611faf576040517f08c379a0000000000000000000000000000000000000000000000000000000008152600401611fa690613551565b60405180910390fd5b611fbf611fba610f4f565b611a17565b565b611fc9610a54565b15612009576040517f08c379a0000000000000000000000000000000000000000000000000000000008152600401612000906136bb565b60405180910390fd5b565b505050565b61201981611d45565b8073ffffffffffffffffffffffffffffffffffffffff167fbc7cd75a20ee27fd9adebab32041f755214dbc6bffa90cc0225b39da2e5c2d3b60405160405180910390a250565b606061206a83611add565b6120a9576040517f08c379a00000000000000000000000000000000000000000000000000000000081526004016120a09061374d565b60405180910390fd5b6000808473ffffffffffffffffffffffffffffffffffffffff16846040516120d191906137b4565b600060405180830381855af49150503d806000811461210c576040519150601f19603f3d011682016040523d82523d6000602084013e612111565b606091505b509150915061213982826040518060600160405280602781526020016137cc60279139612143565b9250505092915050565b60608315612153578290506121a3565b6000835111156121665782518084602001fd5b816040517f08c379a000000000000000000000000000000000000000000000000000000000815260040161219a91906122e6565b60405180910390fd5b9392505050565b8280546121b690612792565b90600052602060002090601f0160209004810192826121d8576000855561221f565b82601f106121f157805160ff191683800117855561221f565b8280016001018555821561221f579182015b8281111561221e578251825591602001919060010190612203565b5b50905061222c9190612230565b5090565b5b80821115612249576000816000905550600101612231565b5090565b600081519050919050565b600082825260208201905092915050565b60005b8381101561228757808201518184015260208101905061226c565b83811115612296576000848401525b50505050565b6000601f19601f8301169050919050565b60006122b88261224d565b6122c28185612258565b93506122d2818560208601612269565b6122db8161229c565b840191505092915050565b6000602082019050818103600083015261230081846122ad565b905092915050565b6000604051905090565b600080fd5b600080fd5b600073ffffffffffffffffffffffffffffffffffffffff82169050919050565b60006123478261231c565b9050919050565b6123578161233c565b811461236257600080fd5b50565b6000813590506123748161234e565b92915050565b6000819050919050565b61238d8161237a565b811461239857600080fd5b50565b6000813590506123aa81612384565b92915050565b600080604083850312156123c7576123c6612312565b5b60006123d585828601612365565b92505060206123e68582860161239b565b9150509250929050565b60008115159050919050565b612405816123f0565b82525050565b600060208201905061242060008301846123fc565b92915050565b61242f8161237a565b82525050565b600060208201905061244a6000830184612426565b92915050565b60008060006060848603121561246957612468612312565b5b600061247786828701612365565b935050602061248886828701612365565b92505060406124998682870161239b565b9150509250925092565b600060ff82169050919050565b6124b9816124a3565b82525050565b60006020820190506124d460008301846124b0565b92915050565b6000602082840312156124f0576124ef612312565b5b60006124fe84828501612365565b91505092915050565b60006020828403121561251d5761251c612312565b5b600061252b8482850161239b565b91505092915050565b600080fd5b600080fd5b7f4e487b7100000000000000000000000000000000000000000000000000000000600052604160045260246000fd5b6125768261229c565b810181811067ffffffffffffffff821117156125955761259461253e565b5b80604052505050565b60006125a8612308565b90506125b4828261256d565b919050565b600067ffffffffffffffff8211156125d4576125d361253e565b5b6125dd8261229c565b9050602081019050919050565b82818337600083830152505050565b600061260c612607846125b9565b61259e565b90508281526020810184848401111561262857612627612539565b5b6126338482856125ea565b509392505050565b600082601f8301126126505761264f612534565b5b81356126608482602086016125f9565b91505092915050565b600080604083850312156126805761267f612312565b5b600061268e85828601612365565b925050602083013567ffffffffffffffff8111156126af576126ae612317565b5b6126bb8582860161263b565b9150509250929050565b6000819050919050565b6126d8816126c5565b82525050565b60006020820190506126f360008301846126cf565b92915050565b6127028161233c565b82525050565b600060208201905061271d60008301846126f9565b92915050565b6000806040838503121561273a57612739612312565b5b600061274885828601612365565b925050602061275985828601612365565b9150509250929050565b7f4e487b7100000000000000000000000000000000000000000000000000000000600052602260045260246000fd5b600060028204905060018216806127aa57607f821691505b6020821081036127bd576127bc612763565b5b50919050565b7f46756e6374696f6e206d7573742062652063616c6c6564207468726f7567682060008201527f64656c656761746563616c6c0000000000000000000000000000000000000000602082015250565b600061281f602c83612258565b915061282a826127c3565b604082019050919050565b6000602082019050818103600083015261284e81612812565b9050919050565b7f46756e6374696f6e206d7573742062652063616c6c6564207468726f7567682060008201527f6163746976652070726f78790000000000000000000000000000000000000000602082015250565b60006128b1602c83612258565b91506128bc82612855565b604082019050919050565b600060208201905081810360008301526128e0816128a4565b9050919050565b7f4e487b7100000000000000000000000000000000000000000000000000000000600052601160045260246000fd5b60006129218261237a565b915061292c8361237a565b9250827fffffffffffffffffffffffffffffffffffffffffffffffffffffffffffffffff03821115612961576129606128e7565b5b828201905092915050565b7f555550535570677261646561626c653a206d757374206e6f742062652063616c60008201527f6c6564207468726f7567682064656c656761746563616c6c0000000000000000602082015250565b60006129c8603883612258565b91506129d38261296c565b604082019050919050565b600060208201905081810360008301526129f7816129bb565b9050919050565b7f496e697469616c697a61626c653a20636f6e747261637420697320616c72656160008201527f647920696e697469616c697a6564000000000000000000000000000000000000602082015250565b6000612a5a602e83612258565b9150612a65826129fe565b604082019050919050565b60006020820190508181036000830152612a8981612a4d565b9050919050565b60008160011c9050919050565b6000808291508390505b6001851115612ae757808604811115612ac357612ac26128e7565b5b6001851615612ad25780820291505b8081029050612ae085612a90565b9450612aa7565b94509492505050565b600082612b005760019050612bbc565b81612b0e5760009050612bbc565b8160018114612b245760028114612b2e57612b5d565b6001915050612bbc565b60ff841115612b4057612b3f6128e7565b5b8360020a915084821115612b5757612b566128e7565b5b50612bbc565b5060208310610133831016604e8410600b8410161715612b925782820a905083811115612b8d57612b8c6128e7565b5b612bbc565b612b9f8484846001612a9d565b92509050818404811115612bb657612bb56128e7565b5b81810290505b9392505050565b6000612bce8261237a565b9150612bd9836124a3565b9250612c067fffffffffffffffffffffffffffffffffffffffffffffffffffffffffffffffff8484612af0565b905092915050565b6000612c198261237a565b9150612c248361237a565b9250817fffffffffffffffffffffffffffffffffffffffffffffffffffffffffffffffff0483118215151615612c5d57612c5c6128e7565b5b828202905092915050565b6000819050919050565b6000819050919050565b6000612c97612c92612c8d84612c68565b612c72565b6124a3565b9050919050565b612ca781612c7c565b82525050565b6000602082019050612cc26000830184612c9e565b92915050565b7f45524332303a2064656372656173656420616c6c6f77616e63652062656c6f7760008201527f207a65726f000000000000000000000000000000000000000000000000000000602082015250565b6000612d24602583612258565b9150612d2f82612cc8565b604082019050919050565b60006020820190508181036000830152612d5381612d17565b9050919050565b7f4f776e61626c653a206e6577206f776e657220697320746865207a65726f206160008201527f6464726573730000000000000000000000000000000000000000000000000000602082015250565b6000612db6602683612258565b9150612dc182612d5a565b604082019050919050565b60006020820190508181036000830152612de581612da9565b9050919050565b7f45524332303a20617070726f76652066726f6d20746865207a65726f2061646460008201527f7265737300000000000000000000000000000000000000000000000000000000602082015250565b6000612e48602483612258565b9150612e5382612dec565b604082019050919050565b60006020820190508181036000830152612e7781612e3b565b9050919050565b7f45524332303a20617070726f766520746f20746865207a65726f20616464726560008201527f7373000000000000000000000000000000000000000000000000000000000000602082015250565b6000612eda602283612258565b9150612ee582612e7e565b604082019050919050565b60006020820190508181036000830152612f0981612ecd565b9050919050565b7f45524332303a20696e73756666696369656e7420616c6c6f77616e6365000000600082015250565b6000612f46601d83612258565b9150612f5182612f10565b602082019050919050565b60006020820190508181036000830152612f7581612f39565b9050919050565b7f45524332303a207472616e736665722066726f6d20746865207a65726f20616460008201527f6472657373000000000000000000000000000000000000000000000000000000602082015250565b6000612fd8602583612258565b9150612fe382612f7c565b604082019050919050565b6000602082019050818103600083015261300781612fcb565b9050919050565b7f45524332303a207472616e7366657220746f20746865207a65726f206164647260008201527f6573730000000000000000000000000000000000000000000000000000000000602082015250565b600061306a602383612258565b91506130758261300e565b604082019050919050565b600060208201905081810360008301526130998161305d565b9050919050565b7f45524332303a207472616e7366657220616d6f756e742065786365656473206260008201527f616c616e63650000000000000000000000000000000000000000000000000000602082015250565b60006130fc602683612258565b9150613107826130a0565b604082019050919050565b6000602082019050818103600083015261312b816130ef565b9050919050565b61313b816126c5565b811461314657600080fd5b50565b60008151905061315881613132565b92915050565b60006020828403121561317457613173612312565b5b600061318284828501613149565b91505092915050565b7f45524331393637557067726164653a206e657720696d706c656d656e7461746960008201527f6f6e206973206e6f742055555053000000000000000000000000000000000000602082015250565b60006131e7602e83612258565b91506131f28261318b565b604082019050919050565b60006020820190508181036000830152613216816131da565b9050919050565b7f45524331393637557067726164653a20756e737570706f727465642070726f7860008201527f6961626c65555549440000000000000000000000000000000000000000000000602082015250565b6000613279602983612258565b91506132848261321d565b604082019050919050565b600060208201905081810360008301526132a88161326c565b9050919050565b7f4f776e61626c653a2063616c6c6572206973206e6f7420746865206f776e6572600082015250565b60006132e5602083612258565b91506132f0826132af565b602082019050919050565b60006020820190508181036000830152613314816132d8565b9050919050565b7f45524332303a206d696e7420746f20746865207a65726f206164647265737300600082015250565b6000613351601f83612258565b915061335c8261331b565b602082019050919050565b6000602082019050818103600083015261338081613344565b9050919050565b7f45524332303a206275726e2066726f6d20746865207a65726f2061646472657360008201527f7300000000000000000000000000000000000000000000000000000000000000602082015250565b60006133e3602183612258565b91506133ee82613387565b604082019050919050565b60006020820190508181036000830152613412816133d6565b9050919050565b7f45524332303a206275726e20616d6f756e7420657863656564732062616c616e60008201527f6365000000000000000000000000000000000000000000000000000000000000602082015250565b6000613475602283612258565b915061348082613419565b604082019050919050565b600060208201905081810360008301526134a481613468565b9050919050565b60006134b68261237a565b91506134c18361237a565b9250828210156134d4576134d36128e7565b5b828203905092915050565b7f496e697469616c697a61626c653a20636f6e7472616374206973206e6f74206960008201527f6e697469616c697a696e67000000000000000000000000000000000000000000602082015250565b600061353b602b83612258565b9150613546826134df565b604082019050919050565b6000602082019050818103600083015261356a8161352e565b9050919050565b7f455243313936373a206e657720696d706c656d656e746174696f6e206973206e60008201527f6f74206120636f6e747261637400000000000000000000000000000000000000602082015250565b60006135cd602d83612258565b91506135d882613571565b604082019050919050565b600060208201905081810360008301526135fc816135c0565b9050919050565b7f5061757361626c653a206e6f7420706175736564000000000000000000000000600082015250565b6000613639601483612258565b915061364482613603565b602082019050919050565b600060208201905081810360008301526136688161362c565b9050919050565b7f5061757361626c653a2070617573656400000000000000000000000000000000600082015250565b60006136a5601083612258565b91506136b08261366f565b602082019050919050565b600060208201905081810360008301526136d481613698565b9050919050565b7f416464726573733a2064656c65676174652063616c6c20746f206e6f6e2d636f60008201527f6e74726163740000000000000000000000000000000000000000000000000000602082015250565b6000613737602683612258565b9150613742826136db565b604082019050919050565b600060208201905081810360008301526137668161372a565b9050919050565b600081519050919050565b600081905092915050565b600061378e8261376d565b6137988185613778565b93506137a8818560208601612269565b80840191505092915050565b60006137c08284613783565b91508190509291505056fe416464726573733a206c6f772d6c6576656c2064656c65676174652063616c6c206661696c6564a2646970667358221220a3ee4b5c816d37a9d781147605749d04d2c76d7c642a18a191763183537a62e264736f6c634300080d0033",
  "immutableReferences": {
    "702": [
      {
        "length": 32,
        "start": 1638
      },
      {
        "length": 32,
        "start": 1780
      },
      {
        "length": 32,
        "start": 2145
      },
      {
        "length": 32,
        "start": 2287
      },
      {
        "length": 32,
        "start": 2463
      }
    ]
  },
  "source": "// SPDX-License-Identifier: MIT\npragma solidity ^0.8.13;\n\nimport \"@openzeppelin/contracts-upgradeable/token/ERC20/ERC20Upgradeable.sol\";\nimport \"@openzeppelin/contracts-upgradeable/token/ERC20/extensions/ERC20BurnableUpgradeable.sol\";\nimport \"@openzeppelin/contracts-upgradeable/security/PausableUpgradeable.sol\";\nimport \"@openzeppelin/contracts-upgradeable/access/OwnableUpgradeable.sol\";\nimport \"@openzeppelin/contracts-upgradeable/proxy/utils/Initializable.sol\";\nimport \"@openzeppelin/contracts-upgradeable/proxy/utils/UUPSUpgradeable.sol\";\n\n/// @custom:security-contact security@driftmania.club\ncontract DriftManiaClub is Initializable, ERC20Upgradeable, ERC20BurnableUpgradeable, PausableUpgradeable, OwnableUpgradeable, UUPSUpgradeable {\n\n    /// @custom:oz-upgrades-unsafe-allow constructor\n    constructor() {\n        _disableInitializers();\n    }\n\n    function initialize() initializer public {\n        __ERC20_init(\"DriftManiaClub\", \"DMC\");\n        __ERC20Burnable_init();\n        __Pausable_init();\n        __Ownable_init();\n        __UUPSUpgradeable_init();\n\n        _mint(msg.sender, 1000000 * 10 ** decimals());\n    }\n\n    function pause() public onlyOwner {\n        _pause();\n    }\n\n    function unpause() public onlyOwner {\n        _unpause();\n    }\n\n    function mint(address to, uint256 amount) public onlyOwner {\n        _mint(to, amount);\n    }\n\n    function _beforeTokenTransfer(address from, address to, uint256 amount) internal whenNotPaused override {\n        super._beforeTokenTransfer(from, to, amount);\n    }\n\n    function _authorizeUpgrade(address newImplementation) internal onlyOwner override {\n\n    }\n}\n",
  "sourcePath": "/Users/bobi/PhpstormProjects/DMCToken/contracts/DriftManiaClub.sol",
  "compiler": {
    "name": "solc",
    "version": "0.8.13+commit.abaa5c0e.Emscripten.clang"
  },
  "schemaVersion": "3.4.10",
  "updatedAt": "2022-09-16T16:10:22.054Z",
  "networkType": "ethereum",
  "devdoc": {
    "custom:security-contact": "security@driftmania.club",
    "kind": "dev",
    "methods": {
      "allowance(address,address)": {
        "details": "See {IERC20-allowance}."
      },
      "approve(address,uint256)": {
        "details": "See {IERC20-approve}. NOTE: If `amount` is the maximum `uint256`, the allowance is not updated on `transferFrom`. This is semantically equivalent to an infinite approval. Requirements: - `spender` cannot be the zero address."
      },
      "balanceOf(address)": {
        "details": "See {IERC20-balanceOf}."
      },
      "burn(uint256)": {
        "details": "Destroys `amount` tokens from the caller. See {ERC20-_burn}."
      },
      "burnFrom(address,uint256)": {
        "details": "Destroys `amount` tokens from `account`, deducting from the caller's allowance. See {ERC20-_burn} and {ERC20-allowance}. Requirements: - the caller must have allowance for ``accounts``'s tokens of at least `amount`."
      },
      "constructor": {
        "custom:oz-upgrades-unsafe-allow": "constructor"
      },
      "decimals()": {
        "details": "Returns the number of decimals used to get its user representation. For example, if `decimals` equals `2`, a balance of `505` tokens should be displayed to a user as `5.05` (`505 / 10 ** 2`). Tokens usually opt for a value of 18, imitating the relationship between Ether and Wei. This is the value {ERC20} uses, unless this function is overridden; NOTE: This information is only used for _display_ purposes: it in no way affects any of the arithmetic of the contract, including {IERC20-balanceOf} and {IERC20-transfer}."
      },
      "decreaseAllowance(address,uint256)": {
        "details": "Atomically decreases the allowance granted to `spender` by the caller. This is an alternative to {approve} that can be used as a mitigation for problems described in {IERC20-approve}. Emits an {Approval} event indicating the updated allowance. Requirements: - `spender` cannot be the zero address. - `spender` must have allowance for the caller of at least `subtractedValue`."
      },
      "increaseAllowance(address,uint256)": {
        "details": "Atomically increases the allowance granted to `spender` by the caller. This is an alternative to {approve} that can be used as a mitigation for problems described in {IERC20-approve}. Emits an {Approval} event indicating the updated allowance. Requirements: - `spender` cannot be the zero address."
      },
      "name()": {
        "details": "Returns the name of the token."
      },
      "owner()": {
        "details": "Returns the address of the current owner."
      },
      "paused()": {
        "details": "Returns true if the contract is paused, and false otherwise."
      },
      "proxiableUUID()": {
        "details": "Implementation of the ERC1822 {proxiableUUID} function. This returns the storage slot used by the implementation. It is used to validate that the this implementation remains valid after an upgrade. IMPORTANT: A proxy pointing at a proxiable contract should not be considered proxiable itself, because this risks bricking a proxy that upgrades to it, by delegating to itself until out of gas. Thus it is critical that this function revert if invoked through a proxy. This is guaranteed by the `notDelegated` modifier."
      },
      "renounceOwnership()": {
        "details": "Leaves the contract without owner. It will not be possible to call `onlyOwner` functions anymore. Can only be called by the current owner. NOTE: Renouncing ownership will leave the contract without an owner, thereby removing any functionality that is only available to the owner."
      },
      "symbol()": {
        "details": "Returns the symbol of the token, usually a shorter version of the name."
      },
      "totalSupply()": {
        "details": "See {IERC20-totalSupply}."
      },
      "transfer(address,uint256)": {
        "details": "See {IERC20-transfer}. Requirements: - `to` cannot be the zero address. - the caller must have a balance of at least `amount`."
      },
      "transferFrom(address,address,uint256)": {
        "details": "See {IERC20-transferFrom}. Emits an {Approval} event indicating the updated allowance. This is not required by the EIP. See the note at the beginning of {ERC20}. NOTE: Does not update the allowance if the current allowance is the maximum `uint256`. Requirements: - `from` and `to` cannot be the zero address. - `from` must have a balance of at least `amount`. - the caller must have allowance for ``from``'s tokens of at least `amount`."
      },
      "transferOwnership(address)": {
        "details": "Transfers ownership of the contract to a new account (`newOwner`). Can only be called by the current owner."
      },
      "upgradeTo(address)": {
        "details": "Upgrade the implementation of the proxy to `newImplementation`. Calls {_authorizeUpgrade}. Emits an {Upgraded} event."
      },
      "upgradeToAndCall(address,bytes)": {
        "details": "Upgrade the implementation of the proxy to `newImplementation`, and subsequently execute the function call encoded in `data`. Calls {_authorizeUpgrade}. Emits an {Upgraded} event."
      }
    },
    "version": 1
  },
  "userdoc": {
    "kind": "user",
    "methods": {},
    "version": 1
  }
}